{
  "_format": "hh-sol-artifact-1",
  "contractName": "MixerMerkleRoot",
  "sourceName": "contracts/MixerMerkleRoot.sol",
  "abi": [
    {
      "inputs": [
        {
          "internalType": "address",
          "name": "admin",
          "type": "address"
        }
      ],
      "stateMutability": "nonpayable",
      "type": "constructor"
    },
    {
      "anonymous": false,
      "inputs": [
        {
          "indexed": true,
          "internalType": "bytes32",
          "name": "depositId",
          "type": "bytes32"
        },
        {
          "indexed": true,
          "internalType": "address",
          "name": "user",
          "type": "address"
        },
        {
          "indexed": false,
          "internalType": "uint256",
          "name": "amount",
          "type": "uint256"
        }
      ],
      "name": "DepositCreated",
      "type": "event"
    },
    {
      "anonymous": false,
      "inputs": [
        {
          "indexed": true,
          "internalType": "bytes32",
          "name": "depositId",
          "type": "bytes32"
        }
      ],
      "name": "DepositDeleted",
      "type": "event"
    },
    {
      "anonymous": false,
      "inputs": [
        {
          "indexed": false,
          "internalType": "bool",
          "name": "isPaused",
          "type": "bool"
        }
      ],
      "name": "EmergencyPause",
      "type": "event"
    },
    {
      "anonymous": false,
      "inputs": [
        {
          "indexed": true,
          "internalType": "bytes32",
          "name": "depositId",
          "type": "bytes32"
        },
        {
          "indexed": true,
          "internalType": "address",
          "name": "user",
          "type": "address"
        },
        {
          "indexed": false,
          "internalType": "uint256",
          "name": "amount",
          "type": "uint256"
        },
        {
          "indexed": false,
          "internalType": "uint256",
          "name": "releaseTime",
          "type": "uint256"
        }
      ],
      "name": "EtherTransferred",
      "type": "event"
    },
    {
      "anonymous": false,
      "inputs": [
        {
          "indexed": true,
          "internalType": "address",
          "name": "oldRecipient",
          "type": "address"
        },
        {
          "indexed": true,
          "internalType": "address",
          "name": "newRecipient",
          "type": "address"
        }
      ],
      "name": "FeeRecipientUpdated",
      "type": "event"
    },
    {
      "anonymous": false,
      "inputs": [
        {
          "indexed": false,
          "internalType": "uint256",
          "name": "oldFee",
          "type": "uint256"
        },
        {
          "indexed": false,
          "internalType": "uint256",
          "name": "newFee",
          "type": "uint256"
        }
      ],
      "name": "FeeUpdated",
      "type": "event"
    },
    {
      "anonymous": false,
      "inputs": [
        {
          "indexed": true,
          "internalType": "bytes32",
          "name": "depositId",
          "type": "bytes32"
        },
        {
          "indexed": false,
          "internalType": "bytes32",
          "name": "oldRoot",
          "type": "bytes32"
        },
        {
          "indexed": false,
          "internalType": "bytes32",
          "name": "newRoot",
          "type": "bytes32"
        }
      ],
      "name": "MerkleRootUpdated",
      "type": "event"
    },
    {
      "anonymous": false,
      "inputs": [
        {
          "indexed": true,
          "internalType": "bytes32",
          "name": "role",
          "type": "bytes32"
        },
        {
          "indexed": true,
          "internalType": "bytes32",
          "name": "previousAdminRole",
          "type": "bytes32"
        },
        {
          "indexed": true,
          "internalType": "bytes32",
          "name": "newAdminRole",
          "type": "bytes32"
        }
      ],
      "name": "RoleAdminChanged",
      "type": "event"
    },
    {
      "anonymous": false,
      "inputs": [
        {
          "indexed": true,
          "internalType": "bytes32",
          "name": "role",
          "type": "bytes32"
        },
        {
          "indexed": true,
          "internalType": "address",
          "name": "account",
          "type": "address"
        },
        {
          "indexed": true,
          "internalType": "address",
          "name": "sender",
          "type": "address"
        }
      ],
      "name": "RoleGranted",
      "type": "event"
    },
    {
      "anonymous": false,
      "inputs": [
        {
          "indexed": true,
          "internalType": "bytes32",
          "name": "role",
          "type": "bytes32"
        },
        {
          "indexed": true,
          "internalType": "address",
          "name": "account",
          "type": "address"
        },
        {
          "indexed": true,
          "internalType": "address",
          "name": "sender",
          "type": "address"
        }
      ],
      "name": "RoleRevoked",
      "type": "event"
    },
    {
      "anonymous": false,
      "inputs": [
        {
          "indexed": true,
          "internalType": "bytes32",
          "name": "depositId",
          "type": "bytes32"
        },
        {
          "indexed": true,
          "internalType": "address",
          "name": "user",
          "type": "address"
        },
        {
          "indexed": false,
          "internalType": "uint256",
          "name": "amount",
          "type": "uint256"
        },
        {
          "indexed": false,
          "internalType": "uint256",
          "name": "releaseTime",
          "type": "uint256"
        }
      ],
      "name": "WithdrawalExecuted",
      "type": "event"
    },
    {
      "stateMutability": "payable",
      "type": "fallback"
    },
    {
      "inputs": [],
      "name": "ADMIN_ROLE",
      "outputs": [
        {
          "internalType": "bytes32",
          "name": "",
          "type": "bytes32"
        }
      ],
      "stateMutability": "view",
      "type": "function"
    },
    {
      "inputs": [],
      "name": "DEFAULT_ADMIN_ROLE",
      "outputs": [
        {
          "internalType": "bytes32",
          "name": "",
          "type": "bytes32"
        }
      ],
      "stateMutability": "view",
      "type": "function"
    },
    {
      "inputs": [],
      "name": "MAX_FEE",
      "outputs": [
        {
          "internalType": "uint256",
          "name": "",
          "type": "uint256"
        }
      ],
      "stateMutability": "view",
      "type": "function"
    },
    {
      "inputs": [],
      "name": "OWNER_ROLE",
      "outputs": [
        {
          "internalType": "bytes32",
          "name": "",
          "type": "bytes32"
        }
      ],
      "stateMutability": "view",
      "type": "function"
    },
    {
      "inputs": [
        {
          "internalType": "bytes32",
          "name": "depositId",
          "type": "bytes32"
        }
      ],
      "name": "deleteDeposit",
      "outputs": [],
      "stateMutability": "nonpayable",
      "type": "function"
    },
    {
      "inputs": [
        {
          "internalType": "bytes32",
          "name": "depositId",
          "type": "bytes32"
        }
      ],
      "name": "deposit",
      "outputs": [],
      "stateMutability": "payable",
      "type": "function"
    },
    {
      "inputs": [
        {
          "internalType": "bytes32",
          "name": "depositId",
          "type": "bytes32"
        }
      ],
      "name": "emergencyWithdrawToUser",
      "outputs": [],
      "stateMutability": "nonpayable",
      "type": "function"
    },
    {
      "inputs": [],
      "name": "fee",
      "outputs": [
        {
          "internalType": "uint256",
          "name": "",
          "type": "uint256"
        }
      ],
      "stateMutability": "view",
      "type": "function"
    },
    {
      "inputs": [],
      "name": "feeRecipient",
      "outputs": [
        {
          "internalType": "address",
          "name": "",
          "type": "address"
        }
      ],
      "stateMutability": "view",
      "type": "function"
    },
    {
      "inputs": [
        {
          "internalType": "bytes32",
          "name": "depositId",
          "type": "bytes32"
        }
      ],
      "name": "getDeposit",
      "outputs": [
        {
          "components": [
            {
              "internalType": "bytes32",
              "name": "depositId",
              "type": "bytes32"
            },
            {
              "internalType": "address",
              "name": "user",
              "type": "address"
            },
            {
              "internalType": "uint256",
              "name": "amount",
              "type": "uint256"
            }
          ],
          "internalType": "struct MixerMerkleRoot.Deposit",
          "name": "",
          "type": "tuple"
        }
      ],
      "stateMutability": "view",
      "type": "function"
    },
    {
      "inputs": [
        {
          "internalType": "uint256",
          "name": "index",
          "type": "uint256"
        }
      ],
      "name": "getDepositIdAt",
      "outputs": [
        {
          "internalType": "bytes32",
          "name": "",
          "type": "bytes32"
        }
      ],
      "stateMutability": "view",
      "type": "function"
    },
    {
      "inputs": [],
      "name": "getFee",
      "outputs": [
        {
          "internalType": "uint256",
          "name": "",
          "type": "uint256"
        }
      ],
      "stateMutability": "view",
      "type": "function"
    },
    {
      "inputs": [
        {
          "internalType": "bytes32",
          "name": "role",
          "type": "bytes32"
        }
      ],
      "name": "getRoleAdmin",
      "outputs": [
        {
          "internalType": "bytes32",
          "name": "",
          "type": "bytes32"
        }
      ],
      "stateMutability": "view",
      "type": "function"
    },
    {
      "inputs": [
        {
          "internalType": "bytes32",
          "name": "role",
          "type": "bytes32"
        },
        {
          "internalType": "address",
          "name": "account",
          "type": "address"
        }
      ],
      "name": "grantRole",
      "outputs": [],
      "stateMutability": "nonpayable",
      "type": "function"
    },
    {
      "inputs": [
        {
          "internalType": "bytes32",
          "name": "role",
          "type": "bytes32"
        },
        {
          "internalType": "address",
          "name": "account",
          "type": "address"
        }
      ],
      "name": "hasRole",
      "outputs": [
        {
          "internalType": "bool",
          "name": "",
          "type": "bool"
        }
      ],
      "stateMutability": "view",
      "type": "function"
    },
    {
      "inputs": [
        {
          "internalType": "bytes32",
          "name": "depositId",
          "type": "bytes32"
        },
        {
          "internalType": "address",
          "name": "user",
          "type": "address"
        },
        {
          "internalType": "uint256",
          "name": "releaseTime",
          "type": "uint256"
        }
      ],
      "name": "hasUserWithdrawn",
      "outputs": [
        {
          "internalType": "bool",
          "name": "",
          "type": "bool"
        }
      ],
      "stateMutability": "view",
      "type": "function"
    },
    {
      "inputs": [],
      "name": "paused",
      "outputs": [
        {
          "internalType": "bool",
          "name": "",
          "type": "bool"
        }
      ],
      "stateMutability": "view",
      "type": "function"
    },
    {
      "inputs": [
        {
          "internalType": "contract IERC20",
          "name": "token",
          "type": "address"
        },
        {
          "internalType": "address",
          "name": "to",
          "type": "address"
        }
      ],
      "name": "recoverERC20",
      "outputs": [],
      "stateMutability": "nonpayable",
      "type": "function"
    },
    {
      "inputs": [
        {
          "internalType": "address",
          "name": "to",
          "type": "address"
        },
        {
          "internalType": "uint256",
          "name": "amount",
          "type": "uint256"
        }
      ],
      "name": "recoverEth",
      "outputs": [],
      "stateMutability": "nonpayable",
      "type": "function"
    },
    {
      "inputs": [
        {
          "internalType": "bytes32",
          "name": "role",
          "type": "bytes32"
        },
        {
          "internalType": "address",
          "name": "account",
          "type": "address"
        }
      ],
      "name": "renounceRole",
      "outputs": [],
      "stateMutability": "nonpayable",
      "type": "function"
    },
    {
      "inputs": [
        {
          "internalType": "bytes32",
          "name": "role",
          "type": "bytes32"
        },
        {
          "internalType": "address",
          "name": "account",
          "type": "address"
        }
      ],
      "name": "revokeRole",
      "outputs": [],
      "stateMutability": "nonpayable",
      "type": "function"
    },
    {
      "inputs": [
        {
          "internalType": "uint256",
          "name": "newFee",
          "type": "uint256"
        }
      ],
      "name": "setFee",
      "outputs": [],
      "stateMutability": "nonpayable",
      "type": "function"
    },
    {
      "inputs": [
        {
          "internalType": "address",
          "name": "newFeeRecipient",
          "type": "address"
        }
      ],
      "name": "setFeeRecipient",
      "outputs": [],
      "stateMutability": "nonpayable",
      "type": "function"
    },
    {
      "inputs": [
        {
          "internalType": "bool",
          "name": "_paused",
          "type": "bool"
        }
      ],
      "name": "setPaused",
      "outputs": [],
      "stateMutability": "nonpayable",
      "type": "function"
    },
    {
      "inputs": [
        {
          "internalType": "bytes32",
          "name": "depositId",
          "type": "bytes32"
        },
        {
          "internalType": "address",
          "name": "recipient",
          "type": "address"
        },
        {
          "internalType": "uint256",
          "name": "amount",
          "type": "uint256"
        },
        {
          "internalType": "uint256",
          "name": "releaseTime",
          "type": "uint256"
        },
        {
          "internalType": "bytes32[]",
          "name": "merkleProof",
          "type": "bytes32[]"
        }
      ],
      "name": "shouldTransferEther",
      "outputs": [
        {
          "internalType": "bool",
          "name": "",
          "type": "bool"
        }
      ],
      "stateMutability": "view",
      "type": "function"
    },
    {
      "inputs": [
        {
          "internalType": "bytes4",
          "name": "interfaceId",
          "type": "bytes4"
        }
      ],
      "name": "supportsInterface",
      "outputs": [
        {
          "internalType": "bool",
          "name": "",
          "type": "bool"
        }
      ],
      "stateMutability": "view",
      "type": "function"
    },
    {
      "inputs": [],
      "name": "totalDeposits",
      "outputs": [
        {
          "internalType": "uint256",
          "name": "",
          "type": "uint256"
        }
      ],
      "stateMutability": "view",
      "type": "function"
    },
    {
      "inputs": [
        {
          "internalType": "bytes32",
          "name": "depositId",
          "type": "bytes32"
        },
        {
          "internalType": "address payable",
          "name": "recipient",
          "type": "address"
        },
        {
          "internalType": "uint256",
          "name": "amount",
          "type": "uint256"
        },
        {
          "internalType": "uint256",
          "name": "releaseTime",
          "type": "uint256"
        },
        {
          "internalType": "bytes32[]",
          "name": "merkleProof",
          "type": "bytes32[]"
        }
      ],
      "name": "transferEther",
      "outputs": [],
      "stateMutability": "nonpayable",
      "type": "function"
    },
    {
      "stateMutability": "payable",
      "type": "receive"
    }
  ],
  "bytecode": "0x608060405260646007556008805460ff191690553480156200002057600080fd5b50604051620022ec380380620022ec8339810160408190526200004391620001c1565b600180556001600160a01b038116620000a25760405162461bcd60e51b815260206004820152601c60248201527f41646d696e2063616e6e6f74206265207a65726f206164647265737300000000604482015260640160405180910390fd5b620000af60003362000120565b620000db7fb19546dff01e856fb3f010c267a7b1c60363cf8a4664e21cc89c26224620214e3362000120565b620001077fa49807205ce4d355092ef5a8a18f56e8913cf4a201fbe287825b095693c217758262000120565b50600280546001600160a01b03191633179055620001f3565b6000828152602081815260408083206001600160a01b038516845290915290205460ff16620001bd576000828152602081815260408083206001600160a01b03851684529091529020805460ff191660011790556200017c3390565b6001600160a01b0316816001600160a01b0316837f2f8788117e7eff1d82e926ec794901d17c78024a50270940304540a733656f0d60405160405180910390a45b5050565b600060208284031215620001d457600080fd5b81516001600160a01b0381168114620001ec57600080fd5b9392505050565b6120e980620002036000396000f3fe6080604052600436106101485760003560e01c806301ffc9a71461015157806316c38b3c14610186578063248a9ca3146101a65780632f2ff15d146101d457806334bafb60146101f457806336568abe146102145780633cbf725c1461023457806346904840146102815780635c975abb146102ae57806369fe0e2d146102c857806375b238fc146102e85780637a86983f1461030a5780637d88209714610355578063886f039a1461036a57806391d148541461038a578063a217fddf146103aa578063a46d1b13146103bf578063a54191e2146103df578063b214faa5146103ff578063b75f5e6014610412578063bc063e1a14610432578063bf301d8414610448578063ced72f8714610468578063d547741f1461047d578063ddca3f431461049d578063e58378bb146104b3578063e72c5717146104d5578063e74b981b146104f557005b3661014f57005b005b34801561015d57600080fd5b5061017161016c366004611b54565b610515565b60405190151581526020015b60405180910390f35b34801561019257600080fd5b5061014f6101a1366004611b8c565b61054c565b3480156101b257600080fd5b506101c66101c1366004611ba9565b6105ac565b60405190815260200161017d565b3480156101e057600080fd5b5061014f6101ef366004611bd7565b6105c1565b34801561020057600080fd5b5061014f61020f366004611c52565b6105e2565b34801561022057600080fd5b5061014f61022f366004611bd7565b61089a565b34801561024057600080fd5b5061017161024f366004611cc4565b60009283526003602090815260408085206001600160a01b039490941685529281528284209184525290205460ff1690565b34801561028d57600080fd5b506002546102a1906001600160a01b031681565b60405161017d9190611cfc565b3480156102ba57600080fd5b506008546101719060ff1681565b3480156102d457600080fd5b5061014f6102e3366004611ba9565b610918565b3480156102f457600080fd5b506101c660008051602061207483398151915281565b34801561031657600080fd5b5061032a610325366004611ba9565b610a18565b60408051825181526020808401516001600160a01b031690820152918101519082015260600161017d565b34801561036157600080fd5b506101c6610ace565b34801561037657600080fd5b5061014f610385366004611d10565b610adf565b34801561039657600080fd5b506101716103a5366004611bd7565b610c1f565b3480156103b657600080fd5b506101c6600081565b3480156103cb57600080fd5b5061014f6103da366004611ba9565b610c48565b3480156103eb57600080fd5b5061014f6103fa366004611ba9565b610e2c565b61014f61040d366004611ba9565b610ec8565b34801561041e57600080fd5b506101c661042d366004611ba9565b61115a565b34801561043e57600080fd5b506101c66103e881565b34801561045457600080fd5b50610171610463366004611c52565b6111b5565b34801561047457600080fd5b506007546101c6565b34801561048957600080fd5b5061014f610498366004611bd7565b6113d0565b3480156104a957600080fd5b506101c660075481565b3480156104bf57600080fd5b506101c660008051602061205483398151915281565b3480156104e157600080fd5b5061014f6104f0366004611d3e565b6113ec565b34801561050157600080fd5b5061014f610510366004611d6a565b6114f7565b60006001600160e01b03198216637965db0b60e01b148061054657506301ffc9a760e01b6001600160e01b03198316145b92915050565b600080516020612054833981519152610564816115b0565b6008805460ff19168315159081179091556040519081527fb80d1ae5628c2af91424c54c87acfd15016be4bebeef0425b328238702f348319060200160405180910390a15050565b60009081526020819052604090206001015490565b6105ca826105ac565b6105d3816115b0565b6105dd83836115ba565b505050565b6000805160206120748339815191526105fa816115b0565b61060261163e565b60085460ff161561062e5760405162461bcd60e51b815260040161062590611d87565b60405180910390fd5b610639600588611697565b6106555760405162461bcd60e51b815260040161062590611db3565b60008781526004602081905260408083209051632fcc076160e21b8152909291309163bf301d8491610693918d918d918d918d918d918d9101611de6565b602060405180830381865afa1580156106b0573d6000803e3d6000fd5b505050506040513d601f19601f820116820180604052508101906106d49190611e47565b9050806107235760405162461bcd60e51b815260206004820152601d60248201527f496e76616c6964207769746864726177616c20636f6e646974696f6e730000006044820152606401610625565b60008981526003602090815260408083206001600160a01b038c16845282528083208984529091528120805460ff191660011790556002830154610768908990611e7a565b9050806000036107c35760008a81526004602052604081208181556001810180546001600160a01b0319169055600201556107a460058b6116aa565b506040518a9060008051602061209483398151915290600090a26107cb565b600283018190555b60408051898152602081018990526001600160a01b038b16918c917ff459faee68c663908ff1a63dbe00219bea7dc9c03f866771eb43feefe2ef6527910160405180910390a36000896001600160a01b03168960405160006040518083038185875af1925050503d806000811461085e576040519150601f19603f3d011682016040523d82523d6000602084013e610863565b606091505b50509050806108845760405162461bcd60e51b815260040161062590611e8d565b5050505061089160018055565b50505050505050565b6001600160a01b038116331461090a5760405162461bcd60e51b815260206004820152602f60248201527f416363657373436f6e74726f6c3a2063616e206f6e6c792072656e6f756e636560448201526e103937b632b9903337b91039b2b63360891b6064820152608401610625565b61091482826116b6565b5050565b600080516020612054833981519152610930816115b0565b600082116109805760405162461bcd60e51b815260206004820152601d60248201527f466565206d7573742062652067726561746572207468616e207a65726f0000006044820152606401610625565b6103e88211156109d25760405162461bcd60e51b815260206004820152601f60248201527f4665652063616e6e6f7420657863656564206d6178696d756d202831302529006044820152606401610625565b600780549083905560408051828152602081018590527f528d9479e9f9889a87a3c30c7f7ba537e5e59c4c85a37733b16e57c62df61302910160405180910390a1505050565b6040805160608101825260008082526020820181905291810191909152610a40600583611697565b610a8c5760405162461bcd60e51b815260206004820152601d60248201527f517565727920666f72206e6f6e6578697374656e74206465706f7369740000006044820152606401610625565b5060009081526004602090815260409182902082516060810184528154815260018201546001600160a01b031692810192909252600201549181019190915290565b6000610ada600561171b565b905090565b600080516020612054833981519152610af7816115b0565b6040516370a0823160e01b81526000906001600160a01b038516906370a0823190610b26903090600401611cfc565b602060405180830381865afa158015610b43573d6000803e3d6000fd5b505050506040513d601f19601f82011682018060405250810190610b679190611eb6565b905060008111610ba55760405162461bcd60e51b81526020600482015260096024820152684e6f20746f6b656e7360b81b6044820152606401610625565b60405163a9059cbb60e01b81526001600160a01b0384811660048301526024820183905285169063a9059cbb906044016020604051808303816000875af1158015610bf4573d6000803e3d6000fd5b505050506040513d601f19601f82011682018060405250810190610c189190611e47565b5050505050565b6000918252602082815260408084206001600160a01b0393909316845291905290205460ff1690565b600080516020612054833981519152610c60816115b0565b610c6861163e565b610c73600583611697565b610c8f5760405162461bcd60e51b815260040161062590611db3565b60008281526004602090815260409182902082516060810184528154815260018201546001600160a01b031692810183905260029091015492810192909252610d0e5760405162461bcd60e51b815260206004820152601160248201527011195c1bdcda5d081b9bdd08199bdd5b99607a1b6044820152606401610625565b604080820151602080840151600087815260049092529281208181556001810180546001600160a01b03191690556002015590610d4c6005866116aa565b5060408051838152600060208201526001600160a01b0383169187917f049e2797daee2aadd15e6edee0f05ed19e022b55665ff1c33d22b70e89652b46910160405180910390a3604051859060008051602061209483398151915290600090a26000816001600160a01b03168360405160006040518083038185875af1925050503d8060008114610df9576040519150601f19603f3d011682016040523d82523d6000602084013e610dfe565b606091505b5050905080610e1f5760405162461bcd60e51b815260040161062590611e8d565b5050505061091460018055565b600080516020612054833981519152610e44816115b0565b610e4c61163e565b610e57600583611697565b610e735760405162461bcd60e51b815260040161062590611db3565b60008281526004602052604081208181556001810180546001600160a01b031916905560020155610ea56005836116aa565b50604051829060008051602061209483398151915290600090a261091460018055565b610ed061163e565b60085460ff1615610ef35760405162461bcd60e51b815260040161062590611d87565b60003411610f545760405162461bcd60e51b815260206004820152602860248201527f4465706f73697420616d6f756e74206d7573742062652067726561746572207460448201526768616e207a65726f60c01b6064820152608401610625565b80610f975760405162461bcd60e51b8152602060048201526013602482015272125b9d985b1a590813595c9adb19481c9bdbdd606a1b6044820152606401610625565b610fa2600582611697565b15610feb5760405162461bcd60e51b81526020600482015260196024820152784465706f73697420494420616c72656164792065786973747360381b6044820152606401610625565b600061271060075434610ffe9190611ecf565b6110089190611ee6565b905060006110168234611e7a565b604080516060810182528581523360208083019182528284018581526000898152600490925293902091518255516001820180546001600160a01b0319166001600160a01b039092169190911790559051600290910155905061107a600584611725565b50604051818152339084907f2fc7f61216f4b9da63724a7ccba484452205b7cf651334640e3cd112017860069060200160405180910390a36002546040516000916001600160a01b03169084908381818185875af1925050503d80600081146110ff576040519150601f19603f3d011682016040523d82523d6000602084013e611104565b606091505b505090508061114b5760405162461bcd60e51b8152602060048201526013602482015272119959481d1c985b9cd9995c8819985a5b1959606a1b6044820152606401610625565b50505061115760018055565b50565b6000611166600561171b565b82106111aa5760405162461bcd60e51b8152602060048201526013602482015272496e646578206f7574206f6620626f756e647360681b6044820152606401610625565b610546600583611731565b60006111c2600588611697565b6111de5760405162461bcd60e51b815260040161062590611db3565b600087815260046020908152604080832090516001600160601b031960608b901b169281019290925260348201889052605482018790529190607401604051602081830303815290604052805190602001209050611272858580806020026020016040519081016040528093929190818152602001838360200280828437600092019190915250508554915084905061173d565b6112b55760405162461bcd60e51b815260206004820152601460248201527324b73b30b634b21036b2b935b63290383937b7b360611b6044820152606401610625565b60008981526003602090815260408083206001600160a01b038c168452825280832089845290915290205460ff16156113245760405162461bcd60e51b815260206004820152601160248201527020b63932b0b23c903bb4ba34323930bbb760791b6044820152606401610625565b4286111561136f5760405162461bcd60e51b815260206004820152601860248201527714995b19585cd9481d1a5b59481b9bdd081c995858da195960421b6044820152606401610625565b86826002015410156113c15760405162461bcd60e51b815260206004820152601b60248201527a125b9cdd59999a58da595b9d0819195c1bdcda5d08185b5bdd5b9d602a1b6044820152606401610625565b50600198975050505050505050565b6113d9826105ac565b6113e2816115b0565b6105dd83836116b6565b600080516020612054833981519152611404816115b0565b478061143b5760405162461bcd60e51b815260206004820152600660248201526509cde408aa8960d31b6044820152606401610625565b808311156114845760405162461bcd60e51b8152602060048201526016602482015275416d6f756e7420657863656564732062616c616e636560501b6044820152606401610625565b6000846001600160a01b03168260405160006040518083038185875af1925050503d80600081146114d1576040519150601f19603f3d011682016040523d82523d6000602084013e6114d6565b606091505b5050905080610c185760405162461bcd60e51b815260040161062590611e8d565b60008051602061205483398151915261150f816115b0565b6001600160a01b03821661155d5760405162461bcd60e51b8152602060048201526015602482015274125b9d985b1a5908199959481c9958da5c1a595b9d605a1b6044820152606401610625565b600280546001600160a01b038481166001600160a01b0319831681179093556040519116919082907faaebcf1bfa00580e41d966056b48521fa9f202645c86d4ddf28113e617c1b1d390600090a3505050565b6111578133611753565b6115c48282610c1f565b610914576000828152602081815260408083206001600160a01b03851684529091529020805460ff191660011790556115fa3390565b6001600160a01b0316816001600160a01b0316837f2f8788117e7eff1d82e926ec794901d17c78024a50270940304540a733656f0d60405160405180910390a45050565b6002600154036116905760405162461bcd60e51b815260206004820152601f60248201527f5265656e7472616e637947756172643a207265656e7472616e742063616c6c006044820152606401610625565b6002600155565b60006116a383836117ac565b9392505050565b60006116a383836117c4565b6116c08282610c1f565b15610914576000828152602081815260408083206001600160a01b0385168085529252808320805460ff1916905551339285917ff6391f5c32d9c69d2a47ea670b442974b53935d1edc7fd64eb21e047a839171b9190a45050565b6000610546825490565b60006116a383836118b7565b60006116a38383611901565b60008261174a858461192b565b14949350505050565b61175d8282610c1f565b6109145761176a81611978565b61177583602061198a565b604051602001611786929190611f2c565b60408051601f198184030181529082905262461bcd60e51b825261062591600401611f9b565b60009081526001919091016020526040902054151590565b600081815260018301602052604081205480156118ad5760006117e8600183611e7a565b85549091506000906117fc90600190611e7a565b905081811461186157600086600001828154811061181c5761181c611fce565b906000526020600020015490508087600001848154811061183f5761183f611fce565b6000918252602080832090910192909255918252600188019052604090208390555b855486908061187257611872611fe4565b600190038181906000526020600020016000905590558560010160008681526020019081526020016000206000905560019350505050610546565b6000915050610546565b60006118c383836117ac565b6118f957508154600181810184556000848152602080822090930184905584548482528286019093526040902091909155610546565b506000610546565b600082600001828154811061191857611918611fce565b9060005260206000200154905092915050565b600081815b84518110156119705761195c8286838151811061194f5761194f611fce565b6020026020010151611b25565b91508061196881611ffa565b915050611930565b509392505050565b60606105466001600160a01b03831660145b60606000611999836002611ecf565b6119a4906002612013565b6001600160401b038111156119bb576119bb612026565b6040519080825280601f01601f1916602001820160405280156119e5576020820181803683370190505b509050600360fc1b81600081518110611a0057611a00611fce565b60200101906001600160f81b031916908160001a905350600f60fb1b81600181518110611a2f57611a2f611fce565b60200101906001600160f81b031916908160001a9053506000611a53846002611ecf565b611a5e906001612013565b90505b6001811115611ad6576f181899199a1a9b1b9c1cb0b131b232b360811b85600f1660108110611a9257611a92611fce565b1a60f81b828281518110611aa857611aa8611fce565b60200101906001600160f81b031916908160001a90535060049490941c93611acf8161203c565b9050611a61565b5083156116a35760405162461bcd60e51b815260206004820181905260248201527f537472696e67733a20686578206c656e67746820696e73756666696369656e746044820152606401610625565b6000818310611b415760008281526020849052604090206116a3565b60008381526020839052604090206116a3565b600060208284031215611b6657600080fd5b81356001600160e01b0319811681146116a357600080fd5b801515811461115757600080fd5b600060208284031215611b9e57600080fd5b81356116a381611b7e565b600060208284031215611bbb57600080fd5b5035919050565b6001600160a01b038116811461115757600080fd5b60008060408385031215611bea57600080fd5b823591506020830135611bfc81611bc2565b809150509250929050565b60008083601f840112611c1957600080fd5b5081356001600160401b03811115611c3057600080fd5b6020830191508360208260051b8501011115611c4b57600080fd5b9250929050565b60008060008060008060a08789031215611c6b57600080fd5b863595506020870135611c7d81611bc2565b9450604087013593506060870135925060808701356001600160401b03811115611ca657600080fd5b611cb289828a01611c07565b979a9699509497509295939492505050565b600080600060608486031215611cd957600080fd5b833592506020840135611ceb81611bc2565b929592945050506040919091013590565b6001600160a01b0391909116815260200190565b60008060408385031215611d2357600080fd5b8235611d2e81611bc2565b91506020830135611bfc81611bc2565b60008060408385031215611d5157600080fd5b8235611d5c81611bc2565b946020939093013593505050565b600060208284031215611d7c57600080fd5b81356116a381611bc2565b60208082526012908201527110dbdb9d1c9858dd081a5cc81c185d5cd95960721b604082015260600190565b60208082526019908201527811195c1bdcda5d08125108191bd95cc81b9bdd08195e1a5cdd603a1b604082015260600190565b8681526001600160a01b0386166020820152604081018590526060810184905260a060808201819052810182905260006001600160fb1b03831115611e2a57600080fd5b8260051b808560c08501379190910160c001979650505050505050565b600060208284031215611e5957600080fd5b81516116a381611b7e565b634e487b7160e01b600052601160045260246000fd5b8181038181111561054657610546611e64565b6020808252600f908201526e151c985b9cd9995c8819985a5b1959608a1b604082015260600190565b600060208284031215611ec857600080fd5b5051919050565b808202811582820484141761054657610546611e64565b600082611f0357634e487b7160e01b600052601260045260246000fd5b500490565b60005b83811015611f23578181015183820152602001611f0b565b50506000910152565b76020b1b1b2b9b9a1b7b73a3937b61d1030b1b1b7bab73a1604d1b815260008351611f5e816017850160208801611f08565b7001034b99036b4b9b9b4b733903937b6329607d1b6017918401918201528351611f8f816028840160208801611f08565b01602801949350505050565b6020815260008251806020840152611fba816040850160208701611f08565b601f01601f19169190910160400192915050565b634e487b7160e01b600052603260045260246000fd5b634e487b7160e01b600052603160045260246000fd5b60006001820161200c5761200c611e64565b5060010190565b8082018082111561054657610546611e64565b634e487b7160e01b600052604160045260246000fd5b60008161204b5761204b611e64565b50600019019056feb19546dff01e856fb3f010c267a7b1c60363cf8a4664e21cc89c26224620214ea49807205ce4d355092ef5a8a18f56e8913cf4a201fbe287825b095693c21775c01be8cccf858504feb9ca3c65b0e2340a99d0935173883cee33e762f4a2904ea2646970667358221220b6404325ca8e1127f73297a2d63204156b37fc9f49d7168753f8c2dd3642838264736f6c63430008140033",
  "linkReferences": {},
  "deployedLinkReferences": {}
}