{
  "_format": "hh-sol-artifact-1",
  "contractName": "Mixer",
  "sourceName": "contracts/Mixer.sol",
  "abi": [
    {
      "inputs": [
        {
          "internalType": "address",
          "name": "admin",
          "type": "address"
        }
      ],
      "stateMutability": "nonpayable",
      "type": "constructor"
    },
    {
      "anonymous": false,
      "inputs": [
        {
          "indexed": true,
          "internalType": "bytes32",
          "name": "depositId",
          "type": "bytes32"
        },
        {
          "indexed": true,
          "internalType": "address",
          "name": "user",
          "type": "address"
        },
        {
          "indexed": false,
          "internalType": "uint256",
          "name": "amount",
          "type": "uint256"
        }
      ],
      "name": "DepositCreated",
      "type": "event"
    },
    {
      "anonymous": false,
      "inputs": [
        {
          "indexed": false,
          "internalType": "bool",
          "name": "isPaused",
          "type": "bool"
        }
      ],
      "name": "EmergencyPause",
      "type": "event"
    },
    {
      "anonymous": false,
      "inputs": [
        {
          "indexed": true,
          "internalType": "address",
          "name": "recipient",
          "type": "address"
        },
        {
          "indexed": false,
          "internalType": "uint256",
          "name": "amount",
          "type": "uint256"
        }
      ],
      "name": "EtherTransferred",
      "type": "event"
    },
    {
      "anonymous": false,
      "inputs": [
        {
          "indexed": true,
          "internalType": "address",
          "name": "oldRecipient",
          "type": "address"
        },
        {
          "indexed": true,
          "internalType": "address",
          "name": "newRecipient",
          "type": "address"
        }
      ],
      "name": "FeeRecipientUpdated",
      "type": "event"
    },
    {
      "anonymous": false,
      "inputs": [
        {
          "indexed": false,
          "internalType": "uint256",
          "name": "oldFee",
          "type": "uint256"
        },
        {
          "indexed": false,
          "internalType": "uint256",
          "name": "newFee",
          "type": "uint256"
        }
      ],
      "name": "FeeUpdated",
      "type": "event"
    },
    {
      "anonymous": false,
      "inputs": [
        {
          "indexed": true,
          "internalType": "bytes32",
          "name": "role",
          "type": "bytes32"
        },
        {
          "indexed": true,
          "internalType": "bytes32",
          "name": "previousAdminRole",
          "type": "bytes32"
        },
        {
          "indexed": true,
          "internalType": "bytes32",
          "name": "newAdminRole",
          "type": "bytes32"
        }
      ],
      "name": "RoleAdminChanged",
      "type": "event"
    },
    {
      "anonymous": false,
      "inputs": [
        {
          "indexed": true,
          "internalType": "bytes32",
          "name": "role",
          "type": "bytes32"
        },
        {
          "indexed": true,
          "internalType": "address",
          "name": "account",
          "type": "address"
        },
        {
          "indexed": true,
          "internalType": "address",
          "name": "sender",
          "type": "address"
        }
      ],
      "name": "RoleGranted",
      "type": "event"
    },
    {
      "anonymous": false,
      "inputs": [
        {
          "indexed": true,
          "internalType": "bytes32",
          "name": "role",
          "type": "bytes32"
        },
        {
          "indexed": true,
          "internalType": "address",
          "name": "account",
          "type": "address"
        },
        {
          "indexed": true,
          "internalType": "address",
          "name": "sender",
          "type": "address"
        }
      ],
      "name": "RoleRevoked",
      "type": "event"
    },
    {
      "anonymous": false,
      "inputs": [
        {
          "indexed": true,
          "internalType": "bytes32",
          "name": "depositId",
          "type": "bytes32"
        },
        {
          "indexed": true,
          "internalType": "address",
          "name": "user",
          "type": "address"
        },
        {
          "indexed": false,
          "internalType": "uint256",
          "name": "amount",
          "type": "uint256"
        }
      ],
      "name": "WithdrawalExecuted",
      "type": "event"
    },
    {
      "stateMutability": "payable",
      "type": "fallback"
    },
    {
      "inputs": [],
      "name": "ADMIN_ROLE",
      "outputs": [
        {
          "internalType": "bytes32",
          "name": "",
          "type": "bytes32"
        }
      ],
      "stateMutability": "view",
      "type": "function"
    },
    {
      "inputs": [],
      "name": "DEFAULT_ADMIN_ROLE",
      "outputs": [
        {
          "internalType": "bytes32",
          "name": "",
          "type": "bytes32"
        }
      ],
      "stateMutability": "view",
      "type": "function"
    },
    {
      "inputs": [],
      "name": "MAX_FEE",
      "outputs": [
        {
          "internalType": "uint256",
          "name": "",
          "type": "uint256"
        }
      ],
      "stateMutability": "view",
      "type": "function"
    },
    {
      "inputs": [],
      "name": "OWNER_ROLE",
      "outputs": [
        {
          "internalType": "bytes32",
          "name": "",
          "type": "bytes32"
        }
      ],
      "stateMutability": "view",
      "type": "function"
    },
    {
      "inputs": [
        {
          "internalType": "bytes32",
          "name": "depositId",
          "type": "bytes32"
        }
      ],
      "name": "deposit",
      "outputs": [],
      "stateMutability": "payable",
      "type": "function"
    },
    {
      "inputs": [
        {
          "internalType": "bytes32",
          "name": "depositId",
          "type": "bytes32"
        }
      ],
      "name": "emergencyWithdraw",
      "outputs": [],
      "stateMutability": "nonpayable",
      "type": "function"
    },
    {
      "inputs": [],
      "name": "feeRecipient",
      "outputs": [
        {
          "internalType": "address",
          "name": "",
          "type": "address"
        }
      ],
      "stateMutability": "view",
      "type": "function"
    },
    {
      "inputs": [
        {
          "internalType": "bytes32",
          "name": "depositId",
          "type": "bytes32"
        }
      ],
      "name": "getDeposit",
      "outputs": [
        {
          "components": [
            {
              "internalType": "bytes32",
              "name": "depositId",
              "type": "bytes32"
            },
            {
              "internalType": "address",
              "name": "user",
              "type": "address"
            },
            {
              "internalType": "uint256",
              "name": "amount",
              "type": "uint256"
            }
          ],
          "internalType": "struct Mixer.Deposit",
          "name": "",
          "type": "tuple"
        }
      ],
      "stateMutability": "view",
      "type": "function"
    },
    {
      "inputs": [
        {
          "internalType": "uint256",
          "name": "index",
          "type": "uint256"
        }
      ],
      "name": "getDepositIdAt",
      "outputs": [
        {
          "internalType": "bytes32",
          "name": "",
          "type": "bytes32"
        }
      ],
      "stateMutability": "view",
      "type": "function"
    },
    {
      "inputs": [],
      "name": "getFee",
      "outputs": [
        {
          "internalType": "uint256",
          "name": "",
          "type": "uint256"
        }
      ],
      "stateMutability": "view",
      "type": "function"
    },
    {
      "inputs": [
        {
          "internalType": "bytes32",
          "name": "role",
          "type": "bytes32"
        }
      ],
      "name": "getRoleAdmin",
      "outputs": [
        {
          "internalType": "bytes32",
          "name": "",
          "type": "bytes32"
        }
      ],
      "stateMutability": "view",
      "type": "function"
    },
    {
      "inputs": [
        {
          "internalType": "bytes32",
          "name": "role",
          "type": "bytes32"
        },
        {
          "internalType": "address",
          "name": "account",
          "type": "address"
        }
      ],
      "name": "grantRole",
      "outputs": [],
      "stateMutability": "nonpayable",
      "type": "function"
    },
    {
      "inputs": [
        {
          "internalType": "bytes32",
          "name": "role",
          "type": "bytes32"
        },
        {
          "internalType": "address",
          "name": "account",
          "type": "address"
        }
      ],
      "name": "hasRole",
      "outputs": [
        {
          "internalType": "bool",
          "name": "",
          "type": "bool"
        }
      ],
      "stateMutability": "view",
      "type": "function"
    },
    {
      "inputs": [],
      "name": "paused",
      "outputs": [
        {
          "internalType": "bool",
          "name": "",
          "type": "bool"
        }
      ],
      "stateMutability": "view",
      "type": "function"
    },
    {
      "inputs": [
        {
          "internalType": "bytes32",
          "name": "role",
          "type": "bytes32"
        },
        {
          "internalType": "address",
          "name": "account",
          "type": "address"
        }
      ],
      "name": "renounceRole",
      "outputs": [],
      "stateMutability": "nonpayable",
      "type": "function"
    },
    {
      "inputs": [
        {
          "internalType": "bytes32",
          "name": "role",
          "type": "bytes32"
        },
        {
          "internalType": "address",
          "name": "account",
          "type": "address"
        }
      ],
      "name": "revokeRole",
      "outputs": [],
      "stateMutability": "nonpayable",
      "type": "function"
    },
    {
      "inputs": [
        {
          "internalType": "uint256",
          "name": "newFee",
          "type": "uint256"
        }
      ],
      "name": "setFee",
      "outputs": [],
      "stateMutability": "nonpayable",
      "type": "function"
    },
    {
      "inputs": [
        {
          "internalType": "address",
          "name": "newFeeRecipient",
          "type": "address"
        }
      ],
      "name": "setFeeRecipient",
      "outputs": [],
      "stateMutability": "nonpayable",
      "type": "function"
    },
    {
      "inputs": [
        {
          "internalType": "bool",
          "name": "_paused",
          "type": "bool"
        }
      ],
      "name": "setPaused",
      "outputs": [],
      "stateMutability": "nonpayable",
      "type": "function"
    },
    {
      "inputs": [
        {
          "internalType": "bytes4",
          "name": "interfaceId",
          "type": "bytes4"
        }
      ],
      "name": "supportsInterface",
      "outputs": [
        {
          "internalType": "bool",
          "name": "",
          "type": "bool"
        }
      ],
      "stateMutability": "view",
      "type": "function"
    },
    {
      "inputs": [],
      "name": "totalDeposits",
      "outputs": [
        {
          "internalType": "uint256",
          "name": "",
          "type": "uint256"
        }
      ],
      "stateMutability": "view",
      "type": "function"
    },
    {
      "inputs": [
        {
          "internalType": "bytes32",
          "name": "depositId",
          "type": "bytes32"
        },
        {
          "internalType": "address payable",
          "name": "recipient",
          "type": "address"
        },
        {
          "internalType": "uint256",
          "name": "amount",
          "type": "uint256"
        }
      ],
      "name": "transferEther",
      "outputs": [],
      "stateMutability": "nonpayable",
      "type": "function"
    },
    {
      "stateMutability": "payable",
      "type": "receive"
    }
  ],
  "bytecode": "0x608060405260646006556007805460ff191690553480156200002057600080fd5b5060405162001a1f38038062001a1f8339810160408190526200004391620001c1565b600180556001600160a01b038116620000a25760405162461bcd60e51b815260206004820152601c60248201527f41646d696e2063616e6e6f74206265207a65726f206164647265737300000000604482015260640160405180910390fd5b620000af60003362000120565b620000db7fb19546dff01e856fb3f010c267a7b1c60363cf8a4664e21cc89c26224620214e3362000120565b620001077fa49807205ce4d355092ef5a8a18f56e8913cf4a201fbe287825b095693c217758262000120565b50600280546001600160a01b03191633179055620001f3565b6000828152602081815260408083206001600160a01b038516845290915290205460ff16620001bd576000828152602081815260408083206001600160a01b03851684529091529020805460ff191660011790556200017c3390565b6001600160a01b0316816001600160a01b0316837f2f8788117e7eff1d82e926ec794901d17c78024a50270940304540a733656f0d60405160405180910390a45b5050565b600060208284031215620001d457600080fd5b81516001600160a01b0381168114620001ec57600080fd5b9392505050565b61181c80620002036000396000f3fe6080604052600436106101065760003560e01c806301ffc9a71461010f57806316c38b3c14610144578063248a9ca3146101645780632f2ff15d1461019257806336568abe146101b257806346904840146101d257806359c5a46c1461020a5780635c975abb1461022a57806369fe0e2d1461024457806375870d651461026457806375b238fc146102845780637a86983f146102a65780637d882097146102f157806391d1485414610306578063a217fddf14610326578063b214faa51461033b578063b75f5e601461034e578063bc063e1a1461036e578063ced72f8714610384578063d547741f14610399578063e58378bb146103b9578063e74b981b146103db57005b3661010d57005b005b34801561011b57600080fd5b5061012f61012a36600461148b565b6103fb565b60405190151581526020015b60405180910390f35b34801561015057600080fd5b5061010d61015f3660046114b5565b610432565b34801561017057600080fd5b5061018461017f3660046114d7565b610492565b60405190815260200161013b565b34801561019e57600080fd5b5061010d6101ad366004611505565b6104a7565b3480156101be57600080fd5b5061010d6101cd366004611505565b6104c8565b3480156101de57600080fd5b506002546101f2906001600160a01b031681565b6040516001600160a01b03909116815260200161013b565b34801561021657600080fd5b5061010d610225366004611535565b61054b565b34801561023657600080fd5b5060075461012f9060ff1681565b34801561025057600080fd5b5061010d61025f3660046114d7565b610841565b34801561027057600080fd5b5061010d61027f3660046114d7565b610941565b34801561029057600080fd5b506101846000805160206117c783398151915281565b3480156102b257600080fd5b506102c66102c13660046114d7565b610b0a565b60408051825181526020808401516001600160a01b031690820152918101519082015260600161013b565b3480156102fd57600080fd5b50610184610bc0565b34801561031257600080fd5b5061012f610321366004611505565b610bd1565b34801561033257600080fd5b50610184600081565b61010d6103493660046114d7565b610bfa565b34801561035a57600080fd5b506101846103693660046114d7565b610e49565b34801561037a57600080fd5b506101846103e881565b34801561039057600080fd5b50600654610184565b3480156103a557600080fd5b5061010d6103b4366004611505565b610ea4565b3480156103c557600080fd5b506101846000805160206117a783398151915281565b3480156103e757600080fd5b5061010d6103f636600461156d565b610ec0565b60006001600160e01b03198216637965db0b60e01b148061042c57506301ffc9a760e01b6001600160e01b03198316145b92915050565b6000805160206117a783398151915261044a81610f79565b6007805460ff19168315159081179091556040519081527fb80d1ae5628c2af91424c54c87acfd15016be4bebeef0425b328238702f348319060200160405180910390a15050565b60009081526020819052604090206001015490565b6104b082610492565b6104b981610f79565b6104c38383610f83565b505050565b6001600160a01b038116331461053d5760405162461bcd60e51b815260206004820152602f60248201527f416363657373436f6e74726f6c3a2063616e206f6e6c792072656e6f756e636560448201526e103937b632b9903337b91039b2b63360891b60648201526084015b60405180910390fd5b6105478282611007565b5050565b6000805160206117c783398151915261056381610f79565b61056b61106c565b60075460ff161561058e5760405162461bcd60e51b81526004016105349061158a565b6105996004856110c5565b6105b55760405162461bcd60e51b8152600401610534906115b6565b6000848152600360205260409020600201548211156106145760405162461bcd60e51b815260206004820152601b60248201527a125b9cdd59999a58da595b9d0819195c1bdcda5d08185b5bdd5b9d602a1b6044820152606401610534565b6001600160a01b0383166106665760405162461bcd60e51b8152602060048201526019602482015278496e76616c696420726563697069656e74206164647265737360381b6044820152606401610534565b600082116106b65760405162461bcd60e51b815260206004820181905260248201527f416d6f756e74206d7573742062652067726561746572207468616e207a65726f6044820152606401610534565b814710156107065760405162461bcd60e51b815260206004820152601d60248201527f496e73756666696369656e7420636f6e74726163742062616c616e63650000006044820152606401610534565b6000848152600360205260408120600201546107239084906115ff565b9050806000036107655760008581526003602052604081208181556001810180546001600160a01b03191690556002015561075f6004866110d8565b5061077a565b60008581526003602052604090206002018190555b836001600160a01b03167f2bd8874aee0f667380057c67e3a812157e4b7649b244d6fcbc9094a9a1f7ee1d846040516107b591815260200190565b60405180910390a26000846001600160a01b03168460405160006040518083038185875af1925050503d806000811461080a576040519150601f19603f3d011682016040523d82523d6000602084013e61080f565b606091505b50509050806108305760405162461bcd60e51b815260040161053490611612565b505061083b60018055565b50505050565b6000805160206117a783398151915261085981610f79565b600082116108a95760405162461bcd60e51b815260206004820152601d60248201527f466565206d7573742062652067726561746572207468616e207a65726f0000006044820152606401610534565b6103e88211156108fb5760405162461bcd60e51b815260206004820152601f60248201527f4665652063616e6e6f7420657863656564206d6178696d756d202831302529006044820152606401610534565b600680549083905560408051828152602081018590527f528d9479e9f9889a87a3c30c7f7ba537e5e59c4c85a37733b16e57c62df61302910160405180910390a1505050565b6000805160206117a783398151915261095981610f79565b61096161106c565b61096c6004836110c5565b6109885760405162461bcd60e51b8152600401610534906115b6565b60008281526003602090815260409182902082516060810184528154815260018201546001600160a01b031692810183905260029091015492810192909252610a075760405162461bcd60e51b815260206004820152601160248201527011195c1bdcda5d081b9bdd08199bdd5b99607a1b6044820152606401610534565b604080820151602080840151600087815260039092529281208181556001810180546001600160a01b03191690556002015590610a456004866110d8565b50806001600160a01b0316857f9b500c765f0aa508908d3e165168183a5cef5acd68573acc126ce58c80ac6b3c84604051610a8291815260200190565b60405180910390a36000816001600160a01b03168360405160006040518083038185875af1925050503d8060008114610ad7576040519150601f19603f3d011682016040523d82523d6000602084013e610adc565b606091505b5050905080610afd5760405162461bcd60e51b815260040161053490611612565b5050505061054760018055565b6040805160608101825260008082526020820181905291810191909152610b326004836110c5565b610b7e5760405162461bcd60e51b815260206004820152601d60248201527f517565727920666f72206e6f6e6578697374656e74206465706f7369740000006044820152606401610534565b5060009081526003602090815260409182902082516060810184528154815260018201546001600160a01b031692810192909252600201549181019190915290565b6000610bcc60046110e4565b905090565b6000918252602082815260408084206001600160a01b0393909316845291905290205460ff1690565b610c0261106c565b60075460ff1615610c255760405162461bcd60e51b81526004016105349061158a565b60003411610c865760405162461bcd60e51b815260206004820152602860248201527f4465706f73697420616d6f756e74206d7573742062652067726561746572207460448201526768616e207a65726f60c01b6064820152608401610534565b610c916004826110c5565b15610cda5760405162461bcd60e51b81526020600482015260196024820152784465706f73697420494420616c72656164792065786973747360381b6044820152606401610534565b600061271060065434610ced919061163b565b610cf79190611652565b90506000610d0582346115ff565b604080516060810182528581523360208083019182528284018581526000898152600390925293902091518255516001820180546001600160a01b0319166001600160a01b0390921691909117905590516002909101559050610d696004846110ee565b50604051818152339084907f2fc7f61216f4b9da63724a7ccba484452205b7cf651334640e3cd112017860069060200160405180910390a36002546040516000916001600160a01b03169084908381818185875af1925050503d8060008114610dee576040519150601f19603f3d011682016040523d82523d6000602084013e610df3565b606091505b5050905080610e3a5760405162461bcd60e51b8152602060048201526013602482015272119959481d1c985b9cd9995c8819985a5b1959606a1b6044820152606401610534565b505050610e4660018055565b50565b6000610e5560046110e4565b8210610e995760405162461bcd60e51b8152602060048201526013602482015272496e646578206f7574206f6620626f756e647360681b6044820152606401610534565b61042c6004836110fa565b610ead82610492565b610eb681610f79565b6104c38383611007565b6000805160206117a7833981519152610ed881610f79565b6001600160a01b038216610f265760405162461bcd60e51b8152602060048201526015602482015274125b9d985b1a5908199959481c9958da5c1a595b9d605a1b6044820152606401610534565b600280546001600160a01b038481166001600160a01b0319831681179093556040519116919082907faaebcf1bfa00580e41d966056b48521fa9f202645c86d4ddf28113e617c1b1d390600090a3505050565b610e468133611106565b610f8d8282610bd1565b610547576000828152602081815260408083206001600160a01b03851684529091529020805460ff19166001179055610fc33390565b6001600160a01b0316816001600160a01b0316837f2f8788117e7eff1d82e926ec794901d17c78024a50270940304540a733656f0d60405160405180910390a45050565b6110118282610bd1565b15610547576000828152602081815260408083206001600160a01b0385168085529252808320805460ff1916905551339285917ff6391f5c32d9c69d2a47ea670b442974b53935d1edc7fd64eb21e047a839171b9190a45050565b6002600154036110be5760405162461bcd60e51b815260206004820152601f60248201527f5265656e7472616e637947756172643a207265656e7472616e742063616c6c006044820152606401610534565b6002600155565b60006110d1838361115f565b9392505050565b60006110d18383611177565b600061042c825490565b60006110d1838361126a565b60006110d183836112b4565b6111108282610bd1565b6105475761111d816112de565b6111288360206112f0565b604051602001611139929190611698565b60408051601f198184030181529082905262461bcd60e51b825261053491600401611707565b60009081526001919091016020526040902054151590565b6000818152600183016020526040812054801561126057600061119b6001836115ff565b85549091506000906111af906001906115ff565b90508181146112145760008660000182815481106111cf576111cf61173a565b90600052602060002001549050808760000184815481106111f2576111f261173a565b6000918252602080832090910192909255918252600188019052604090208390555b855486908061122557611225611750565b60019003818190600052602060002001600090559055856001016000868152602001908152602001600020600090556001935050505061042c565b600091505061042c565b6000611276838361115f565b6112ac5750815460018181018455600084815260208082209093018490558454848252828601909352604090209190915561042c565b50600061042c565b60008260000182815481106112cb576112cb61173a565b9060005260206000200154905092915050565b606061042c6001600160a01b03831660145b606060006112ff83600261163b565b61130a906002611766565b6001600160401b0381111561132157611321611779565b6040519080825280601f01601f19166020018201604052801561134b576020820181803683370190505b509050600360fc1b816000815181106113665761136661173a565b60200101906001600160f81b031916908160001a905350600f60fb1b816001815181106113955761139561173a565b60200101906001600160f81b031916908160001a90535060006113b984600261163b565b6113c4906001611766565b90505b600181111561143c576f181899199a1a9b1b9c1cb0b131b232b360811b85600f16601081106113f8576113f861173a565b1a60f81b82828151811061140e5761140e61173a565b60200101906001600160f81b031916908160001a90535060049490941c936114358161178f565b90506113c7565b5083156110d15760405162461bcd60e51b815260206004820181905260248201527f537472696e67733a20686578206c656e67746820696e73756666696369656e746044820152606401610534565b60006020828403121561149d57600080fd5b81356001600160e01b0319811681146110d157600080fd5b6000602082840312156114c757600080fd5b813580151581146110d157600080fd5b6000602082840312156114e957600080fd5b5035919050565b6001600160a01b0381168114610e4657600080fd5b6000806040838503121561151857600080fd5b82359150602083013561152a816114f0565b809150509250929050565b60008060006060848603121561154a57600080fd5b83359250602084013561155c816114f0565b929592945050506040919091013590565b60006020828403121561157f57600080fd5b81356110d1816114f0565b60208082526012908201527110dbdb9d1c9858dd081a5cc81c185d5cd95960721b604082015260600190565b60208082526019908201527811195c1bdcda5d08125108191bd95cc81b9bdd08195e1a5cdd603a1b604082015260600190565b634e487b7160e01b600052601160045260246000fd5b8181038181111561042c5761042c6115e9565b6020808252600f908201526e151c985b9cd9995c8819985a5b1959608a1b604082015260600190565b808202811582820484141761042c5761042c6115e9565b60008261166f57634e487b7160e01b600052601260045260246000fd5b500490565b60005b8381101561168f578181015183820152602001611677565b50506000910152565b76020b1b1b2b9b9a1b7b73a3937b61d1030b1b1b7bab73a1604d1b8152600083516116ca816017850160208801611674565b7001034b99036b4b9b9b4b733903937b6329607d1b60179184019182015283516116fb816028840160208801611674565b01602801949350505050565b6020815260008251806020840152611726816040850160208701611674565b601f01601f19169190910160400192915050565b634e487b7160e01b600052603260045260246000fd5b634e487b7160e01b600052603160045260246000fd5b8082018082111561042c5761042c6115e9565b634e487b7160e01b600052604160045260246000fd5b60008161179e5761179e6115e9565b50600019019056feb19546dff01e856fb3f010c267a7b1c60363cf8a4664e21cc89c26224620214ea49807205ce4d355092ef5a8a18f56e8913cf4a201fbe287825b095693c21775a2646970667358221220b551176a86b0b7ec93b34db9b1cf4b4c2eee50608f9b35fc89031ba043b811df64736f6c63430008140033",
  "linkReferences": {},
  "deployedLinkReferences": {}
}